:100000000C942A000C9447000C9447000C94470071
:100010000C9447000C9447000C9447000C94160273
:100020000C9447000C9447000C9447000C94470034
:100030000C9447000C9447000C9447000C94470024
:100040000C9447000C9447000C9447000C94470014
:100050000C94470011241FBECFE5D8E0DEBFCDBF12
:1000600010E0A0E6B0E0EAE1FDE002C005900D92EC
:10007000A037B107D9F726E0A0E7B0E001C01D9294
:10008000AE3AB207E1F70E9481060C948B060C94FD
:100090000000CF93DF93EC010E941F048091700059
:1000A00090917100892B31F485E790E09093710075
:1000B000809370002097C9F0809172009091730036
:1000C0009E01280F391F2B3D45E0340788F4821725
:1000D000930788F4C0917000D0917100C80FD91FA8
:1000E000309373002093720008C0C0E0D0E005C0D8
:1000F000C0E0D0E002C0C0E0D0E00E943F05CE01E9
:10010000DF91CF9108950895FC0103969283818336
:100110002FEF3FEF348323839683858390878783F4
:1001200010820895FC01118610860895CF93DF9305
:10013000FC01A085B185C281D381848195819D8395
:100140008C83C481D581828193819B838A8311961C
:100150008D919C911297E817F90731F4848195816C
:1001600012969C938E931197118610868C918150D4
:100170008C938C91DF91CF9108951BBC8CE78ABD45
:100180008BE08EBD89B7806189BF089531E1FC01A4
:100190003083319722E220833197A3E3A083319704
:1001A00060833197708331971082319760E8608364
:1001B00031971082319762E06083319763E060830A
:1001C000319764E06083319765E06083319766E042
:1001D0006083319767E06083319768E0608331978F
:1001E00069E06083319760E16083319730833197B4
:1001F00032E13083319733E13083319734E130831A
:10020000319735E13083319736E13083319737E1EB
:100210003083319738E13083319739E1308331973A
:1002200030E23083319731E2308331972083319748
:1002300023E220833197408331975083319726E220
:100240002083319727E22083319728E2208331975A
:1002500029E22083319720E32083319721E3208313
:10026000869708950E94BD00A091AC06B091AD069E
:10027000CD91CDBFDD91DEBFFF91EF91DF91CF91A9
:10028000BF91AF919F918F917F916F915F914F91AE
:100290003F912F911F910F91FF90EF90DF90CF90A2
:1002A000BF90AF909F908F907F906F905F904F9096
:1002B0003F902F901F900F900FBE0F90089581E0F8
:1002C00008950F920FB6F8940F921F9211242F9257
:1002D0003F924F925F926F927F928F929F92AF92D6
:1002E000BF92CF92DF92EF92FF920F931F932F93C3
:1002F0003F934F935F936F937F938F939F93AF93AE
:10030000BF93CF93DF93EF93FF93A091AC06B0918F
:10031000AD060DB60D920EB60D920E941406A09178
:10032000AC06B091AD06CD91CDBFDD91DEBFFF91A2
:10033000EF91DF91CF91BF91AF919F918F917F917D
:100340006F915F914F913F912F911F910F91FF906E
:10035000EF90DF90CF90BF90AF909F908F907F9065
:100360006F905F904F903F902F901F900F900FBE17
:100370000F9008950F920FB6F8940F921F921124C8
:100380002F923F924F925F926F927F928F929F92A5
:10039000AF92BF92CF92DF92EF92FF920F931F9393
:1003A0002F933F934F935F936F937F938F939F937D
:1003B000AF93BF93CF93DF93EF93FF93A091AC06DE
:1003C000B091AD060DB60D920EB60D920E942504A9
:1003D00081110E941406A091AC06B091AD06CD919A
:1003E000CDBFDD91DEBFFF91EF91DF91CF91BF9146
:1003F000AF919F918F917F916F915F914F913F91BD
:100400002F911F910F91FF90EF90DF90CF90BF90B1
:10041000AF909F908F907F906F905F904F903F90A4
:100420002F901F900F900FBE0F9008950E94BA0159
:100430001895E0917406F09175068081811107C0CE
:100440008FEF9FEF90935406809353060895E091A9
:100450007406F09175060580F681E02D808191810A
:1004600090935406809353060895CF93DF93EC0145
:100470008F89988D0E948300CE010E948300DF91B6
:10048000CF9108956F927F928F929F92AF92BF9279
:10049000CF92DF92EF920F931F93CF93DF93CDB75D
:1004A000DEB74C01D50157968D919C9158972150FC
:1004B00031093C01620E731E6115710589F416C085
:1004C000822F90E0FB01E80FF91F3081D501A80FC2
:1004D000B91F59963C938081882329F02F5F01C072
:1004E00020E0283068F3F50110A203C0D501599629
:1004F0001C92B3E0BE1520F40F2EF3E0EF2EF02D8A
:10050000F501E68AC50102960E949200C5010C968B
:100510000E949200D5011996BC92AE92189784E081
:1005200090E08E1991091D969C938E931C9753967B
:10053000BC92AE92529784E0F501B196DF011D9214
:100540008A95E9F7F50115A2A801B401C3010E943B
:10055000C600D5018D939C93C114D10419F0F60106
:10056000B182A082DF91CF911F910F91EF90DF9028
:10057000CF90BF90AF909F908F907F906F90089595
:10058000CF93C0E010C08C2F90E09C01220F331F4E
:10059000220F331F220F331F820F931F8857994F4B
:1005A0000E948400CF5FC43070F38FE796E00E9412
:1005B000840086E796E00E94840089E696E00E9427
:1005C000840080E696E00E9484008FE796E0909396
:1005D00075068093740686E796E090937306809381
:1005E0007206CF910895CF93DF93EC010FB6F89484
:1005F0000F9280915E068F5F80935E068091AC06BD
:100600009091AD06892B59F4D093AD06C093AC06FA
:1006100080915E06813099F40E94C00210C08091E2
:100620005A0681110CC0E091AC06F091AD06968996
:100630008E89891720F0D093AD06C093AC068091C7
:1006400055068F5F809355068E8990915B069817AB
:1006500010F480935B0690E0FC01EE0FFF1FEE0F9D
:10066000FF1FEE0FFF1F8E0F9F1FFC01E857F94F72
:100670000180F281E02DFD83EC83848195819F834D
:100680008E83A481B581CE01029613969C938E939E
:10069000129795838483EE89F0E0CF01880F991F2C
:1006A000880F991F880F991FE80FF91FE857F94F16
:1006B000FB87EA8780818F5F80830F900FBE8091D8
:1006C0005A06882351F0E091AC06F091AD06968968
:1006D0008E89981710F40E946101DF91CF910895DF
:1006E000CF93DF931CC00FB6F8940F92E09165068C
:1006F000F0916606C681D781CE0102960E949600CF
:1007000080915E06815080935E0680915F068150E5
:1007100080935F060F900FBECE010E94350280913C
:100720005F068111E0CFDF91CF9108950E947003A1
:10073000809188068230D0F30E946101F7CF2F921A
:100740003F924F925F926F927F928F929F92AF9261
:10075000BF92CF92DF92EF92FF920F931F93CF93AE
:10076000DF933C011B015A012901CA010E94490083
:100770006C01892B71F086E290E00E944900EC0147
:10078000892B19F0D88ECF8A06C0C6010E9483003B
:1007900002C0C0E0D0E0209791F0950140E050E029
:1007A000812C912C5E016701E02E8201B101C30111
:1007B0000E944202CE010E94F30281E001C08FEF4D
:1007C000DF91CF911F910F91FF90EF90DF90CF902D
:1007D000BF90AF909F908F907F906F905F904F9061
:1007E0003F902F900895EF92FF920F930F2EF1E517
:1007F000EF2EF6E0FF2EF02D00E020E030E045E5A2
:1008000050E061E670E086E993E00E949F0381304A
:1008100081F4F8948FEF9FEF9093540680935306E2
:1008200081E080935A0610925D0610925C060E9449
:100830003201809160000F91FF90EF9008958091B8
:1008400050068F5F8093500608950F931F93CF93A8
:10085000DF9380915006811101C1C0915C06D09157
:100860005D068E010F5F1F4F10935D0600935C06BF
:1008700001151105B9F480917406909175062091C7
:100880007206309173063093750620937406909328
:10089000730680937206809156068F5F809356068A
:1008A0000E94190280915306909154060817190767
:1008B00020F480E0B8C081E001C080E0E0917406DF
:1008C000F09175069081911107C02FEF3FEF3093A3
:1008D000540620935306A7C0E0917406F091750664
:1008E0000580F681E02D0680F781E02D228133819D
:1008F0000217130728F4309354062093530693C02D
:10090000A285B3852481358146815781E9015D83C4
:100910004C832681378144815581E9015B834A8379
:1009200011962D913C911297AF014E5F5F4F2417A6
:10093000350731F42681378112963C932E93119717
:10094000138612869C9191509C93A489B589109727
:1009500019F12685378560897189E9017D836C836A
:100960002089318966857785E9017B836A831196C1
:100970006D917C9112979F01245F3F4F621773071F
:1009800031F42089318912963C932E931197158A60
:10099000148A9C9191509C93268990915B069217A2
:1009A00010F420935B0630E0D901AA0FBB1FAA0FF9
:1009B000BB1FAA0FBB1F2A0F3B1FD901A857B94F56
:1009C00011960D90BC91A02DB583A48314962D9102
:1009D0003C9115973783268314962D913C9115975A
:1009E000E9015B834A8315965C934E931497A6891D
:1009F000B0E09D01220F331F220F331F220F331F40
:100A0000A20FB31FA857B94FB387A2879C919F5FCE
:100A10009C932689E091AC06F091AD069689291742
:100A200008F049CF4BCFE091AC06F091AD06268996
:100A300030E0F901EE0FFF1FEE0FFF1FEE0FFF1F5B
:100A40002E0F3F1FF901E857F94F9081923008F0BF
:100A500081E09091570691110CC00CC0809158060E
:100A6000909159060196909359068093580680E01C
:100A700001C081E0DF91CF911F910F910895CF9335
:100A8000DF930FB6F8940F928091500681508093B7
:100A90005006809150068111BFC080915E06811181
:100AA00096C0BDC0E0916E06F0916F060680F7819A
:100AB000E02DA489B589C685D785808991899D83D4
:100AC0008C83C089D189868597859B838A8311967B
:100AD0002D913C911297CF010C962817390731F4CC
:100AE0008089918912969C938E931197158A148A06
:100AF0008C9181508C93A285B385C481D5818681E8
:100B000097819D838C83C681D781848195819B83C6
:100B10008A8311968D919C9112979F012E5F3F4F72
:100B20008217930731F48681978112969C938E9356
:100B30001197138612868C9181508C93868990919F
:100B40005B06981710F480935B0690E0DC01AA0F17
:100B5000BB1FAA0FBB1FAA0FBB1F8A0F9B1FDC0165
:100B6000A857B94F11960D90BC91A02DB583A483C1
:100B700014968D919C911597978386831496CD91A9
:100B8000DC9115973B832A8315963C932E931497FB
:100B9000A689B0E0CD01880F991F880F991F880F93
:100BA000991FA80FB91FA857B94FB387A2878C9177
:100BB0008F5F8C939689A091AC06B091AD06569646
:100BC0008C91981730F081E08093570602C0E0E0E6
:100BD000F0E080916906811165CFEF2B11F00E9442
:100BE0001902C0915806D0915906209769F00E94C9
:100BF0002504882319F081E0809357062197B9F7DF
:100C0000109259061092580680915706882331F0A9
:100C10000E94610181E003C080E001C080E00F908C
:100C20000FBEDF91CF91089580915006882321F067
:100C300081E08093570608951092570620915B0635
:100C400001C02150822F90E0FC01EE0FFF1FEE0F3C
:100C5000FF1FEE0FFF1FE80FF91FE857F94F308114
:100C6000332379F3AC01440F551F440F551F440F34
:100C7000551F480F591FDF010180F281E02D0280CE
:100C8000F381E02D1296FC93EE9311974557594F3F
:100C9000E417F50729F442815381FD015283418312
:100CA000FC01EE0FFF1FEE0FFF1FEE0FFF1F8E0F59
:100CB0009F1FFC01E857F94F0180F281E02D8681EA
:100CC00097819093AD068093AC0620935B060895C0
:100CD0000895EF92FF920F93082F80E090E00E941A
:100CE0004900E12CF12C9C0145E550E066E670E0FE
:100CF00080E896E00E949F030F91FF90EF90089587
:100D0000FFCF0E94680681E00E9469060E94F303FB
:0A0D100080E090E00895F894FFCF12
:100D1A000349444C450074617265614E6F310000AD
:00000001FF
